S00F000047656E697573322E7372656378
S113000012C02CC02BC0DDC0EDC028C027C026C044
S113001025C00AC123C022C021C020C01FC01EC0E9
S11300201DC01CC01BC011241FBECFE5D4E0DEBF21
S1130030CDBF10E0A0E6B0E0E2E9FBE002C005902D
S11300400D92A838B107D9F720E0A8E8B0E001C0C4
S11300501D92AF38B207E1F783D499C5D1CF0F937E
S11300601F93CF93DF93CDB7DEB764970FB6F894A1
S1130070DEBF0FBECDBF9C018AE0E4E6F0E0DE0106
S1130080119601900D928A95E1F78AE0EEE6F0E090
S1130090DE011B9601900D928A95E1F7C90164E691
S11300A070E084D48B01EAE0F0E0C901BF017ED4A2
S11300B0A1E0B0E0AC0FBD1FA80FB91F2C91209395
S11300C08900CB01BF0172D4FE01E80FF91F8385BB
S11300D080938E000130110521F42068209389005B
S11300E006C00230110519F4806180938E00649675
S11300F00FB6F894DEBF0FBECDBFDF91CF911F9135
S11301000F910895CF93DF93CDB7DEB760970FB605
S1130110F894DEBF0FBECDBF8F3F910529F4109236
S1130120890010928E0029C087709078992324F456
S11301300197886F9F6F019628E0E8E7F0E0DE0101
S1130140119601900D922A95E1F728E0E0E8F0E09D
S1130150DE01199601900D922A95E1F7FE01E80F50
S1130160F91F218520938900E1E0F0E0EC0FFD1FE9
S1130170E80FF91F808180938E0060960FB6F89483
S1130180DEBF0FBECDBFDF91CF91089583EC87BB57
S113019083E084BB9FEF91BB90B79B7F90BF88BBEC
S11301A08CE385BB12BA089586E085BD89B7806C5F
S11301B089BF80E883BD1092890010928E007894E4
S11301C008951F920F920FB60F9211248F93C19A24
S11301D0C0988091890082BB8F910F900FBE0F90C1
S11301E01F9018951F920F920FB60F9211248F93A0
S11301F0C09AC19880918E0082BB8F910F900FBEE0
S11302000F901F90189581E083BF89B7816089BFE3
S113021010928A0010928B0010928C0010928D0024
S113022010928800789408951F920F920FB60F923F
S113023011248F939F93809188008F5F8F3F19F0D3
S11302408093880012C01092880080918A008111E6
S1130250C79A80918B008111A89A80918C0081119A
S1130260A99A80918D008111C69A90918A008091FB
S11302708800981708F4C79890918B0080918800A3
S1130280981708F4A89890918C008091880098178A
S113029008F4A99890918D0080918800981708F42B
S11302A0C6989F918F910F900FBE0F901F90189535
S11302B0282F392F21153105E1F19A9B09C09D9B07
S11302C011C09C9B19C09B9929C020C09A9908C051
S11302D08FE19EE40197F1F700C0000080E00895EB
S11302E09D9908C08FE19EE40197F1F700C00000DA
S11302F081E008959C9908C08FE19EE40197F1F78D
S113030000C0000082E008959B9908C08FE19EE43C
S11303100197F1F700C0000083E008958FE097E2B1
S11303200197F1F700C000002150310979F68FEFF1
S113033008958FEF0895813061F070F0823031F0CC
S1130340833009F052C09B9B3FC046C09C9B2AC08F
S113035031C09D9B15C01CC09A9908C08FE097E2DC
S11303600197F1F700C000009A9BF8CF9FE728E3BC
S113037081E0915020408040E1F700C000000895E2
S11303808FE097E20197F1F700C000009D9BF8CF42
S11303909FE728E381E0915020408040E1F700C0CE
S11303A0000008958FE097E20197F1F700C0000084
S11303B09C9BF8CF9FE728E381E091502040804048
S11303C0E1F700C0000008958FE097E20197F1F78C
S11303D000C000009B9BF8CF9FE728E381E0915089
S11303E020408040E1F700C0000008952F923F9222
S11303F04F925F926F927F928F929F92AF92BF9231
S1130400CF92DF92EF92FF920F931F93CF93DF93DC
S1130410CDB7DEB7CE5FD1090FB6F894DEBF0FBEFD
S1130420CDBFEE24E394F12CEC0EFD1E6E012BEFF8
S1130430C20ED11C87012ED383709078992324F4A3
S113044001978C6F9F6F0196D8018D938D01AC1528
S1130450BD0589F70F2EF3E02F2E312CF02D00E28D
S113046013E0C350DF4FE882CD5FD040C250DF4F6E
S1130470F882CE5FD0400F2EF4E1AF2EB12CF02DD8
S1130480612C712C8A2C9B2C0F2EF4E14F2EF02D15
S113049018C088E893E1B10189D2062F172F0132E1
S11304A0B3E01B0714F000E213E00039E1E01E079B
S11304B014F400E911E0C550DF4F28803980CB5F88
S11304C0D040121413040CF05CC015950795C3506A
S11304D0DF4FE880CD5FD040C250DF4FF880CE5F61
S11304E0D040C12CD12CC6010DDE10161106CCF55E
S11304F0262D372D5E2D4F2DE52FF42FD7018C910E
S1130500A82FB0E0A657BF4FC901959587958531AF
S113051091050CF0882D8C938FE097E20197F1F709
S113052000C00000265F3F4F201731072CF3862DB3
S1130530972D9801281B390BA081B0E0A657BF4F17
S113054035952795253131050CF0282D2C93AFE0F6
S1130550B7E21197F1F700C000000A9680179107DF
S113056044F3D701ED917D01F0E0E657FF4F10828F
S1130570BFEFCB1ADB0AC214D30409F0B4CF810154
S113058002C000E010E0C801BDDD80E090E0A1E021
S1130590B0E0AC0FBD1FA00FB11FEC91F0E0E65727
S11305A0FF4F9C0135952795253131050CF09501B8
S11305B02083EFE0F7E23197F1F700C000000A96DC
S11305C08039F1E09F0749F780E991E0A1E0B0E0CC
S11305D0AC0FBD1FA00FB11FEC91F0E0E657FF4F29
S11305E09C0135952795253131050CF09501208323
S11305F0EFE0F7E23197F1F700C000000A9761F7E6
S1130600E1E0F0E0EC0FFD1FE00FF11FE081F0E00E
S1130610E657FF4F1082C10122DDA1014F5F5F4FFA
S1130620C550DF4F59834883CB5FD040141615065D
S11306300CF003C1C350DF4FE880CD5FD040C250FF
S1130640DF4FF880CE5FD040C12CD12C562C80EDEA
S113065097E02EDE682E5FE768E371E0515060405A
S11306607040E1F700C00000D7010D917D0110E05A
S113067090E00817190709F4B3C02AE830E044E110
S1130680F90140838BE890E0DC014C93ACE8B0E0E6
S11306904C930DE810E0F8014083FFE759EA63E06A
S11306A0F15050406040E1F700C00000F9011082B1
S11306B0FC0110821C92F8011082FFE759EA63E002
S11306C0F15050406040E1F700C00000F901408360
S11306D0FC0140834C93F8014083FFE759EA63E04F
S11306E0F15050406040E1F700C00000F901108271
S11306F0FC0110821C92F8011082FFE759EA63E0C2
S1130700F15050406040E1F700C00000F90140831F
S1130710FC0140834C93F8014083FFE759EA63E00E
S1130720F15050406040E1F700C00000F901108230
S1130730FC0110821C92F8011082FFE759EA63E081
S1130740F15050406040E1F700C00000F9014083DF
S1130750FC0140834C93F8014083FFE759EA63E0CE
S1130760F15050406040E1F700C00000F9011082F0
S1130770FC0110821C92F8011082FFE759EA63E041
S1130780F15050406040E1F700C00000F90140839F
S1130790FC0140834C93F8014083FFE749EA53E0AE
S11307A0F15040405040E1F700C00000F9011082D0
S11307B0FC0110821C92D8011C92BFE7E9EAF3E025
S11307C0B150E040F040E1F700C000002FEF44E3F7
S11307D05CE0215040405040E1F700C0000021C0DF
S11307E0C214D30439F4C550DF4F88819981CB5F9B
S11307F0D04035DC06571F4FD8014C92862D9BDD27
S1130800F8011082FFEFCF1ADF0AC550DF4F48818D
S11308105981CB5FD040C416D50609F018CF652C9A
S11308200CC0C550DF4FA880B980CB5FD04051E0E9
S1130830A51AB1088A2D9B2D14C06FEF74E38CE0C8
S1130840615070408040E1F700C00000C550DF4FA8
S1130850A881B981CB5FD040AA3FB10509F019CE78
S1130860E0CFC250DF4F0FB6F894DEBF0FBECDBF4E
S1130870DF91CF911F910F91FF90EF90DF90CF9078
S1130880BF90AF909F908F907F906F905F904F90AC
S11308903F902F9008957F928F929F92AF92BF9234
S11308A0CF92DF92EF92FF920F931F93CF93DF9338
S11308B0A12CB12C0F2EFAE8CF2EF0E0DF2EF02D74
S11308C00F2EFBE8EF2EF0E0FF2EF02D0CE810E0E9
S11308D0CDE8D0E00F2EF4E17F2EF02D8EE190E0F4
S11308E0E7DC882E912C9FEF89169104D1F4EFEF69
S11308F0AE1ABE0AF6011082F7011082F8011082C6
S11309001882950123703078332334F4215031094F
S11309102C6F3F6F2F5F3F4FF901E657FF4F7082F7
S1130920DDCF10928A0010928B0010928C001092EE
S11309308D0001DDAA0CBB1CAA0CBB1C8A0C9B1CE1
S1130940882D992DDF91CF911F910F91FF90EF90FA
S1130950DF90CF90BF90AF909F908F907F9008953D
S113096015DC51DC21DC80E090E0A3D0082F10E0FE
S1130970033011051CF00F3F110531F463E080E0F2
S113098090E09FD003E010E0C80169DB84DF86D0EB
S11309902DDDEC01081719072CF4682F80E090E096
S11309A090D08E01C8015BDB76DFF2CF97FB072E78
S11309B016F4009406D077FD08D00BD007FC05D0C0
S11309C03EF4909581959F4F0895709561957F4F62
S11309D00895AA1BBB1B51E107C0AA1FBB1FA61782
S11309E0B70710F0A61BB70B881F991F5A95A9F7D4
S11309F080959095BC01CD0108958F929F92AF92FE
S1130A00BF92CF92DF92EF92FF92CF93DF93EC01EC
S1130A10688179818A819B816115710581059105C0
S1130A2021F464E279ED8BE597E02DE133EF41E0C9
S1130A3050E054D049015A019B01AC01A7EAB1E44A
S1130A4068D06B017C01ACEEB4EFA50194016DD0CC
S1130A50C60ED71EE81EF91EF7FE06C081E0C81AAE
S1130A60D108E10880E8F80AC882D982EA82FB82C8
S1130A70E894D7F8EE24FF24C601DF91CF91FF90CC
S1130A80EF90DF90CF90BF90AF909F908F9008959C
S1130A90B4DF089580E690E0B0DF0895A0E0B0E010
S1130AA08093600090936100A0936200B093630010
S1130AB00895E199FECF9FBB8EBBE09A99278DB331
S1130AC00895262FE199FECF9FBB8EBB2DBB0FB699
S1130AD0F894E29AE19A0FBE01960895052E97FBC9
S1130AE016F4009406D057FD0CD023D007FC09D08F
S1130AF07EF490958095709561957F4F8F4F9F4FB1
S1130B00089550954095309521953F4F4F4F5F4F35
S1130B10089531D0A59F900DB49F900DA49F800D92
S1130B20911D11240895B7FFF4CFF3DF821B930BBB
S1130B300895A1E21A2EAA1BBB1BFD010DC0AA1F1A
S1130B40BB1FEE1FFF1FA217B307E407F50720F032
S1130B50A21BB30BE40BF50B661F771F881F991FAD
S1130B601A9469F760957095809590959B01AC01F6
S1130B70BD01CF010895A29FB001B39FC001A39FFF
S1130B8001D0B29F700D811D1124911D0895F89418
S1050B90FFCF91
S1130B920100000077413B6B4D6E7E437F6FEE2870
S1130BA2CD6D2B67E72CEF6F04000000004080023C
S10B0BB20002014020000000D4
S9030000FC
